{
  "contractName": "Bank",
  "abi": [
    {
      "inputs": [],
      "payable": true,
      "stateMutability": "payable",
      "type": "constructor"
    },
    {
      "anonymous": false,
      "inputs": [
        {
          "indexed": false,
          "internalType": "uint256",
          "name": "transactionID",
          "type": "uint256"
        },
        {
          "indexed": false,
          "internalType": "address",
          "name": "account",
          "type": "address"
        },
        {
          "indexed": false,
          "internalType": "uint256",
          "name": "totalBalance",
          "type": "uint256"
        },
        {
          "indexed": false,
          "internalType": "uint256",
          "name": "amount",
          "type": "uint256"
        },
        {
          "indexed": false,
          "internalType": "uint256",
          "name": "time",
          "type": "uint256"
        }
      ],
      "name": "Deposited",
      "type": "event"
    },
    {
      "anonymous": false,
      "inputs": [
        {
          "indexed": false,
          "internalType": "uint256",
          "name": "transactionID",
          "type": "uint256"
        },
        {
          "indexed": false,
          "internalType": "address",
          "name": "account",
          "type": "address"
        },
        {
          "indexed": false,
          "internalType": "uint256",
          "name": "totalBalance",
          "type": "uint256"
        },
        {
          "indexed": false,
          "internalType": "uint256",
          "name": "amount",
          "type": "uint256"
        },
        {
          "indexed": false,
          "internalType": "uint256",
          "name": "time",
          "type": "uint256"
        }
      ],
      "name": "Withdrawed",
      "type": "event"
    },
    {
      "constant": true,
      "inputs": [],
      "name": "counterDeposit",
      "outputs": [
        {
          "internalType": "uint256",
          "name": "",
          "type": "uint256"
        }
      ],
      "payable": false,
      "stateMutability": "view",
      "type": "function"
    },
    {
      "constant": true,
      "inputs": [],
      "name": "counterWithdraw",
      "outputs": [
        {
          "internalType": "uint256",
          "name": "",
          "type": "uint256"
        }
      ],
      "payable": false,
      "stateMutability": "view",
      "type": "function"
    },
    {
      "constant": true,
      "inputs": [
        {
          "internalType": "uint256",
          "name": "",
          "type": "uint256"
        }
      ],
      "name": "depositList",
      "outputs": [
        {
          "internalType": "uint256",
          "name": "transaction_id",
          "type": "uint256"
        },
        {
          "internalType": "address payable",
          "name": "account",
          "type": "address"
        },
        {
          "internalType": "uint256",
          "name": "amount",
          "type": "uint256"
        },
        {
          "internalType": "uint256",
          "name": "time",
          "type": "uint256"
        }
      ],
      "payable": false,
      "stateMutability": "view",
      "type": "function"
    },
    {
      "constant": true,
      "inputs": [],
      "name": "owner",
      "outputs": [
        {
          "internalType": "address",
          "name": "",
          "type": "address"
        }
      ],
      "payable": false,
      "stateMutability": "view",
      "type": "function"
    },
    {
      "constant": true,
      "inputs": [],
      "name": "threshold",
      "outputs": [
        {
          "internalType": "uint256",
          "name": "",
          "type": "uint256"
        }
      ],
      "payable": false,
      "stateMutability": "view",
      "type": "function"
    },
    {
      "constant": true,
      "inputs": [],
      "name": "time",
      "outputs": [
        {
          "internalType": "uint256",
          "name": "",
          "type": "uint256"
        }
      ],
      "payable": false,
      "stateMutability": "view",
      "type": "function"
    },
    {
      "constant": true,
      "inputs": [],
      "name": "totalAmount",
      "outputs": [
        {
          "internalType": "uint256",
          "name": "",
          "type": "uint256"
        }
      ],
      "payable": false,
      "stateMutability": "view",
      "type": "function"
    },
    {
      "constant": true,
      "inputs": [],
      "name": "upper_threshold",
      "outputs": [
        {
          "internalType": "uint256",
          "name": "",
          "type": "uint256"
        }
      ],
      "payable": false,
      "stateMutability": "view",
      "type": "function"
    },
    {
      "constant": true,
      "inputs": [
        {
          "internalType": "uint256",
          "name": "",
          "type": "uint256"
        }
      ],
      "name": "withdrawList",
      "outputs": [
        {
          "internalType": "uint256",
          "name": "transaction_id",
          "type": "uint256"
        },
        {
          "internalType": "address payable",
          "name": "account",
          "type": "address"
        },
        {
          "internalType": "uint256",
          "name": "amount",
          "type": "uint256"
        },
        {
          "internalType": "uint256",
          "name": "time",
          "type": "uint256"
        }
      ],
      "payable": false,
      "stateMutability": "view",
      "type": "function"
    },
    {
      "constant": false,
      "inputs": [
        {
          "internalType": "uint256",
          "name": "_deposit",
          "type": "uint256"
        }
      ],
      "name": "deposit",
      "outputs": [],
      "payable": true,
      "stateMutability": "payable",
      "type": "function"
    },
    {
      "constant": false,
      "inputs": [
        {
          "internalType": "uint256",
          "name": "_withdraw",
          "type": "uint256"
        }
      ],
      "name": "withdraw",
      "outputs": [],
      "payable": false,
      "stateMutability": "nonpayable",
      "type": "function"
    },
    {
      "constant": true,
      "inputs": [],
      "name": "getBalance",
      "outputs": [
        {
          "internalType": "uint256",
          "name": "",
          "type": "uint256"
        }
      ],
      "payable": false,
      "stateMutability": "view",
      "type": "function"
    }
  ],
  "bytecode": "0x6080604052600080556000600255600060035560146005556032600655600060018190555033600460006101000a81548173ffffffffffffffffffffffffffffffffffffffff021916908373ffffffffffffffffffffffffffffffffffffffff160217905550610916806100746000396000f3fe6080604052600436106100a75760003560e01c806342cde4e81161006457806342cde4e81461022357806369ac4d581461024e5780638da5cb5b14610279578063b6b55f25146102d0578063b8ec6678146102fe578063e7c5759a1461038e576100a7565b806312065fe0146100ac57806316ada547146100d75780631a39d8ef146101025780632e1a7d4d1461012d57806333d22a06146101685780633dea96d0146101f8575b600080fd5b3480156100b857600080fd5b506100c16103b9565b6040518082815260200191505060405180910390f35b3480156100e357600080fd5b506100ec610400565b6040518082815260200191505060405180910390f35b34801561010e57600080fd5b50610117610406565b6040518082815260200191505060405180910390f35b34801561013957600080fd5b506101666004803603602081101561015057600080fd5b810190808035906020019092919050505061040c565b005b34801561017457600080fd5b506101a16004803603602081101561018b57600080fd5b8101908080359060200190929190505050610631565b604051808581526020018473ffffffffffffffffffffffffffffffffffffffff1673ffffffffffffffffffffffffffffffffffffffff16815260200183815260200182815260200194505050505060405180910390f35b34801561020457600080fd5b5061020d610681565b6040518082815260200191505060405180910390f35b34801561022f57600080fd5b50610238610687565b6040518082815260200191505060405180910390f35b34801561025a57600080fd5b5061026361068d565b6040518082815260200191505060405180910390f35b34801561028557600080fd5b5061028e610693565b604051808273ffffffffffffffffffffffffffffffffffffffff1673ffffffffffffffffffffffffffffffffffffffff16815260200191505060405180910390f35b6102fc600480360360208110156102e657600080fd5b81019080803590602001909291905050506106b9565b005b34801561030a57600080fd5b506103376004803603602081101561032157600080fd5b810190808035906020019092919050505061088b565b604051808581526020018473ffffffffffffffffffffffffffffffffffffffff1673ffffffffffffffffffffffffffffffffffffffff16815260200183815260200182815260200194505050505060405180910390f35b34801561039a57600080fd5b506103a36108db565b6040518082815260200191505060405180910390f35b6000600760003373ffffffffffffffffffffffffffffffffffffffff1673ffffffffffffffffffffffffffffffffffffffff16815260200190815260200160002054905090565b60005481565b60015481565b60006104166103b9565b90506000821180156104285750808211155b61043157600080fd5b60036000815480929190600101919050555081600760003373ffffffffffffffffffffffffffffffffffffffff1673ffffffffffffffffffffffffffffffffffffffff1681526020019081526020016000206000828254039250508190555042600081905550604051806080016040528060035481526020013373ffffffffffffffffffffffffffffffffffffffff1681526020018381526020016000548152506009600060035481526020019081526020016000206000820151816000015560208201518160010160006101000a81548173ffffffffffffffffffffffffffffffffffffffff021916908373ffffffffffffffffffffffffffffffffffffffff1602179055506040820151816002015560608201518160030155905050816001600082825403925050819055503373ffffffffffffffffffffffffffffffffffffffff166108fc839081150290604051600060405180830381858888f193505050501580156105a5573d6000803e3d6000fd5b507f0d0cf5f25cba315db403ce82a1fe641414a431cd0e8d608fd87e55694e5030a8600354338385600054604051808681526020018573ffffffffffffffffffffffffffffffffffffffff1673ffffffffffffffffffffffffffffffffffffffff1681526020018481526020018381526020018281526020019550505050505060405180910390a15050565b60096020528060005260406000206000915090508060000154908060010160009054906101000a900473ffffffffffffffffffffffffffffffffffffffff16908060020154908060030154905084565b60025481565b60055481565b60035481565b600460009054906101000a900473ffffffffffffffffffffffffffffffffffffffff1681565b60006106c36103b9565b9050600082116106d257600080fd5b60026000815480929190600101919050555081600760003373ffffffffffffffffffffffffffffffffffffffff1673ffffffffffffffffffffffffffffffffffffffff1681526020019081526020016000206000828254019250508190555042600081905550604051806080016040528060025481526020013373ffffffffffffffffffffffffffffffffffffffff1681526020018381526020016000548152506008600060025481526020019081526020016000206000820151816000015560208201518160010160006101000a81548173ffffffffffffffffffffffffffffffffffffffff021916908373ffffffffffffffffffffffffffffffffffffffff1602179055506040820151816002015560608201518160030155905050816001600082825401925050819055507f893e8a14c42d0303c66e296f4c3e4ed772edf8097f8d41ab8d08099654172ec0600254338385600054604051808681526020018573ffffffffffffffffffffffffffffffffffffffff1673ffffffffffffffffffffffffffffffffffffffff1681526020018481526020018381526020018281526020019550505050505060405180910390a15050565b60086020528060005260406000206000915090508060000154908060010160009054906101000a900473ffffffffffffffffffffffffffffffffffffffff16908060020154908060030154905084565b6006548156fea265627a7a723158203c1b62c3f40877ff7baaabd6a90b279cbfa9a2e237c2e4c856486a5293e8be9964736f6c634300050c0032",
  "source": "pragma solidity ^0.5.3;\r\n\r\ncontract Bank{\r\n  uint public time = 0;\r\n  uint public totalAmount;\r\n  uint public counterDeposit = 0;\r\n  uint public counterWithdraw = 0;\r\n\r\n  address public owner;\r\n  uint public threshold = 20;\r\n  uint public upper_threshold = 50;\r\n\r\n  mapping (address => uint) private balance;\r\n  mapping (uint => History) public depositList;\r\n  mapping (uint => History) public withdrawList;\r\n\r\n  struct History {\r\n    uint transaction_id;\r\n    address payable account;\r\n    uint amount;\r\n    uint time;\r\n  }\r\n\r\n  event Deposited(\r\n    uint transactionID,\r\n    address account,\r\n    uint totalBalance,\r\n    uint amount,\r\n    uint time\r\n  );\r\n\r\n  event Withdrawed(\r\n    uint transactionID,\r\n    address account,\r\n    uint totalBalance,\r\n    uint amount,\r\n    uint time\r\n  );\r\n\r\n  constructor() public payable{\r\n    totalAmount = 0;\r\n    owner = msg.sender;\r\n  }\r\n\r\n  function deposit(uint _deposit) public payable {\r\n    // Get balance for user account\r\n    uint accBalance = getBalance();\r\n    // Require amount\r\n    require (_deposit > 0);\r\n    // Increase counter\r\n    counterDeposit ++;\r\n    // Save deposit by address\r\n    balance[msg.sender] += _deposit;\r\n    // Save time stamp\r\n    time = block.timestamp;\r\n    // Save the transaction record in list\r\n    depositList[counterDeposit] = History(counterDeposit, msg.sender, _deposit, time);\r\n    // Update total Ether in smart contract\r\n    totalAmount += _deposit;\r\n    // Trigger an event\r\n    emit Deposited(counterDeposit, msg.sender, accBalance, _deposit, time);\r\n\r\n  }\r\n\r\n  function withdraw(uint _withdraw) public {\r\n    // Get balance for user account\r\n    uint accBalance = getBalance();\r\n    // Require amount && amount <= amountDeposited\r\n    require (_withdraw > 0 && _withdraw <= accBalance);\r\n    // Increase counter\r\n    counterWithdraw ++;\r\n    // Substract withdraw amount from balance[]\r\n    balance[msg.sender] -= _withdraw;\r\n    // Save time stamp\r\n    time = block.timestamp;\r\n    // Save the transaction record in list\r\n    withdrawList[counterWithdraw] = History(counterWithdraw, msg.sender, _withdraw, time);\r\n    // Update total amount\r\n    totalAmount -= _withdraw;\r\n    // Send ether to account\r\n    msg.sender.transfer(_withdraw);\r\n    // Trigger an event\r\n    emit Withdrawed(counterWithdraw, msg.sender, accBalance, _withdraw, time);\r\n\r\n  }\r\n\r\n  function getBalance() public view returns (uint){\r\n    return balance[msg.sender];\r\n  }\r\n\r\n}\r\n",
  "sourcePath": "C:/Users/Akmal Zamri/BC/bank/src/contracts/Bank.sol",
  "compiler": {
    "name": "solc",
    "version": "0.5.12+commit.7709ece9.Emscripten.clang"
  },
  "schemaVersion": "3.0.20",
  "updatedAt": "2020-01-08T05:43:30.814Z",
  "networkType": "ethereum",
  "devdoc": {
    "methods": {}
  },
  "userdoc": {
    "methods": {}
  }
}